:020000040800F2
:1000000000280020AD120008FD120008F9010008C8
:10001000FF010008050200080B02000800000000B4
:1000200000000000000000000000000011020008B5
:10003000FD12000800000000850700084D100008B0
:10004000FD120008FD120008FD120008FD12000854
:10005000FD120008FD120008FD120008FD12000844
:10006000FD120008FD120008FD120008FD12000834
:10007000FD120008FD120008FD120008FD12000824
:10008000FD120008FD120008FD120008FD12000814
:10009000FD120008FD120008FD120008FD12000804
:1000A000FD120008FD120008FD120008FD120008F4
:1000B000FD120008FD120008FD120008FD120008E4
:1000C000FD120008FD120008FD120008FD120008D4
:1000D000FD120008FD120008FD120008FD120008C4
:1000E000FD120008FD12000800000000FD120008CB
:1000F000FD120008FD120008FD120008FD120008A4
:10010000FD120008FD120008FD120008FD12000893
:10011000FD120008FD120008FD120008FD12000883
:10012000FD120008FD120008FD120008FD12000873
:1001300010B5054C237833B9044B13B10448AFF321
:1001400000800123237010BD00000020000000008B
:100150004813000808B5034B1BB103490348AFF32C
:10016000008008BD000000000400002048130008C3
:1001700080B500AF00F00EFF00F01CFF034BFF2224
:100180001A60034B00221A6000BF80BD22ED00E020
:1001900023ED00E080B582B000AF786000F018FF7A
:1001A00079684FF47A7000F021FF00BF0837BD4630
:1001B00080BD000080B483B000AF0346FB71FB79C3
:1001C000032B13D801A252F823F000BFDD01000871
:1001D000E1010008E5010008E901000800DF05E091
:1001E00001DF03E002DF01E003DF00BF00BF0C37E7
:1001F000BD4680BC704700BF80B400AFFEE780B44E
:1002000000AFFEE780B400AFFEE780B400AFFEE7CA
:100210001EF0040F0CBFEFF30880EFF3098000F02D
:1002200091BB00BF80B483B000AF78607B680022D0
:100230001A607B6800225A607B6800229A60002363
:1002400018460C37BD4680BC7047000080B483B0B0
:1002500000AF786039603B689B68052B01DD0123A6
:1002600020E03B681968124B83FB0132CB17D21A8E
:1002700013465B0013445B00CA1A3B681A603B6874
:100280001B683A6802339B0013447A685A603B68E3
:100290001B685A1C3B681A603B689B685A1C3B6889
:1002A0009A60002318460C37BD4680BC704700BFDB
:1002B000ABAAAA2A80B483B000AF786039603B68EB
:1002C0009B68002B01D1022321E03B685968124B47
:1002D00083FB0132CB17D21A13465B0013445B0039
:1002E000CA1A3B685A603B685B683A6802339B00F5
:1002F00013445A687B681A603B685B685A1C3B6809
:100300005A603B689B685A1E3B689A6000231846F7
:100310000C37BD4680BC7047ABAAAA2A80B483B014
:1003200000AF78607B689B68DBB218460C37BD462F
:1003300080BC704780B483B000AF0023FB710D4ACE
:100340000D4B1A600C4B1B68A3F618030A4A536046
:10035000094B5B68094A934201D20123FB71064BAA
:100360005B68043B044A9360FB7918460C37BD4632
:1003700080BC7047002800201C0000208003002063
:1003800080B400AF20BFFDE780B582B000AF00238E
:10039000FB71FFF7EDFE124B00221A73FFF7CAFF45
:1003A0000346FB710F48FFF73DFF0346FB71FB79E6
:1003B000002B01D00223FB710B4BFF221A700A4B5A
:1003C00000221A72084B094ADA60074800F010F858
:1003D0000346FB71FB7918460837BD4680BD00BF58
:1003E0001C00002084000020500000208103000831
:1003F00080B487B000AF78600023FB75394B9A68F2
:100400007B685A617B685A697B685B68D31AA3F181
:1004100084027B689A617B689B69334A934201D26C
:100420000123FB757B689B69043B2E4A93607B68C4
:100430003B610023FB733B695B691A463B69DA61E8
:100440003B69DB691A1F3B69DA613B69DB694FF085
:1004500080721A603B69DB691A1F3B69DA613B698C
:10046000DA683B69DB691A603B69DB691A1F3B6923
:10047000DA613B69DB696FF002021A600023FB73EB
:100480000BE03B69DB691A1F3B69DA613B69DB6999
:1004900000221A60FB7B0133FB73FB7B0C2BF0D932
:1004A000104B93F83030062B13D80E4B93F83030A6
:1004B0000C4904337A6841F823200A4B93F8303012
:1004C0000133DAB2074B83F830207B6800221A74BC
:1004D00001E00323FB75FB7D18461C37BD4680BC3D
:1004E000704700BF1C0000208003002080B584B04E
:1004F00000AF78600423FB737B68002B08D00023D7
:10050000FB737B6802221A740020FFF753FE01E0A0
:100510000423FB73FB7B18461037BD4680BD80B5B6
:1005200084B000AF786039600023FB737B680022E1
:100530001A747B68012283F820207B683A685A622B
:100540000120FFF737FEFB7B18461037BD4680BD04
:1005500080B582B000AF0023FB71124B01221A73E9
:10056000104B114A9A620F4B9B6ADB693B603B68F8
:1005700083F309880C48FFF7B9FF0C48FFF70AFE20
:10058000EFF3148040F0020080F31488012000F0A3
:100590008BFC044B9B6ADB689847FB79184608374D
:1005A000BD4680BD1C0000205000002095090008B9
:1005B00080B586B000AF00233B610023FB600023C1
:1005C000FB750023FB7200237B600023FB7232E08B
:1005D000FB7AFB701AE0FB783A4A043352F8233076
:1005E0007B60FB785A1EFB783649043251F8222092
:1005F0003449043341F82320FB78013B314904336B
:100600007A6841F82320FB78013BFB70FB78002BD4
:100610000ED0FB782B4A043352F823301A7AFB7839
:10062000013B2849043351F823301B7A9A42D2D82F
:10063000FB7A0133FB72234B93F83030FA7A9A42FB
:10064000C6D32148FFF7EEFD0023FB752EE0FB7DAE
:100650001C4A043352F823303B61FB7D0133194AB5
:10066000043352F82330FB603B691B7C002B1AD00B
:100670003B691A7AFB681B7A9A4207D91249386992
:10068000FFF7E4FD3B6903221A7417E03B691A7A0D
:10069000FB681B7A9A4210D10B493869FFF7D6FDE7
:1006A0003B6903221A74FB7D0133FB75054B93F8FC
:1006B0003030FA7D9A42CAD300E000BF00BF18373D
:1006C000BD4680BD1C0000208400002080B582B0A3
:1006D00000AF2948FFF722FE0346BB710023FB71E0
:1006E00000233B60BB79002B03D1244B244ADA6200
:1006F0003EE0BB79012B14D13B461F491846FFF75A
:10070000D9FD3B681B7C002B07D03B681B4AD3629A
:100710001A4BDB6A01221A742AE0184B184ADA6273
:1007200026E00023FB7111E03B4613491846FFF712
:10073000C1FD124B9A6A3B689A420CD03B680E4945
:100740001846FFF783FDFB790133FB71FA79BB791A
:100750009A42E9D300E000BF3B4607491846FFF73D
:10076000A9FD3B68054AD362044BDB6A01221A7477
:1007700000BF0837BD4680BD840000201C0000205B
:100780005000002072B60024EFF309831C46224675
:100790006B4B9B6ADA616A4B9B6ADA69684B9B6AAE
:1007A000043ADA61664B9B6ADB6922461A60644B45
:1007B0009B6ADA69624B9B6A043ADA61604B9B6A16
:1007C000DB692A461A605E4B9B6ADA695C4B9B6A5E
:1007D000043ADA615A4B9B6ADB6932461A60584B1D
:1007E0009B6ADA69564B9B6A043ADA61544B9B6AFE
:1007F000DB693A461A60524B9B6ADA69504B9B6A36
:10080000043ADA614E4B9B6ADB6942461A604C4BF4
:100810009B6ADA694A4B9B6A043ADA61484B9B6AE5
:10082000DB694A461A60464B9B6ADA69444B9B6A0D
:10083000043ADA61424B9B6ADB6952461A60404BCC
:100840009B6ADA693E4B9B6A043ADA613C4B9B6ACD
:10085000DB695A461A603A4BDB6A002B06D0384BEC
:10086000DB6A374A9362364B0022DA62344B9B6A6A
:10087000DB691B689B46324B9B6ADA69304B9B6A8B
:100880000432DA612E4B9B6ADB691B689A462C4B5B
:100890009B6ADA692A4B9B6A0432DA61284B9B6AAD
:1008A000DB691B689946264B9B6ADA69244B9B6A75
:1008B0000432DA61224B9B6ADB691B689846204B45
:1008C0009B6ADA691E4B9B6A0432DA611C4B9B6A95
:1008D000DB691B681F461A4B9B6ADA69184B9B6AD7
:1008E0000432DA61164B9B6ADB691B681E46144BA7
:1008F0009B6ADA69124B9B6A0432DA61104B9B6A7D
:10090000DB691B681D460E4B9B6ADA690C4B9B6AC0
:100910000432DA610A4B9B6ADB691B681C46084B90
:100920009B6ADA69064B9B6A0432DA61044B9B6A64
:10093000DB691C4684F3098862B6704700BF00BFBC
:100940001C00002080B584B000AF78607B6818334D
:100950001B68023B1B78FB73FB7B0033032B0FD818
:10096000FFF726FE0A4B1B7B012B0BD1084B9B6A22
:100970001B78FF2B06D0FFF7A9FE00F0FDFA01E07F
:1009800000BF00E000BF00BF1037BD4680BD00BF04
:100990001C00002080B582B000AF0023FB71002353
:1009A000FB7132E0FB79214A043352F823301B7C7F
:1009B000002B27D1FB791D4A043352F8233093F8DA
:1009C0002030012B1ED1FB79184A043352F8233012
:1009D0005A6A013A5A62FB79144A043352F82330B6
:1009E0005B6A002B0ED1FB79104A043352F8233096
:1009F000002283F82020FB790C4A043352F823307C
:100A000002221A74FB790133FB71084B93F83030E2
:100A1000FA799A42C6D3FFF7CBFDFFF757FE00F0F5
:100A2000ABFA00BF0837BD4680BD00BF1C000020E8
:100A300080B483B000AF0346FB71044B5B68FA7966
:100A40001A7000BF0C37BD4680BC704760130008A9
:100A500080B400AF034B1B681B781846BD4680BCB2
:100A6000704700BF6013000880B483B000AF034636
:100A7000FB71044B5B68FA791A7000BF0C37BD46F6
:100A800080BC70476813000880B400AF034B1B683C
:100A90001B781846BD4680BC704700BF681300082D
:100AA00080B483B000AF0346FB71044B1B68FA7936
:100AB0001A7000BF0C37BD4680BC70477013000829
:100AC00080B400AF034B1B681B781846BD4680BC42
:100AD000704700BF7413000880B584B000AF0346B0
:100AE000FB710B4B1B78FB730A4B1B68002B06D06A
:100AF000084B1B68FA79104698470346FB73FB794D
:100B0000184600F043F8FB7B18461037BD4680BD01
:100B1000780000207C00002080B582B000AF002368
:100B2000FB71FFF795FF0346FB71FB79002B03D1A7
:100B30000020FFF799FF05E0FB79012B02D101208E
:100B4000FFF792FF00BF0837BD4680BD80B582B079
:100B500000AFFFF799FF0346FB71FB791846FFF7DB
:100B600067FF00BF0837BD4680BD80B582B000AFCB
:100B70000321022000F05CF90346FB71FB79184663
:100B8000FFF78EFF00BF0837BD4680BD80B584B03B
:100B900000AF0346FB71FB79012B07D1012207212E
:100BA000022000F0EFF80023FB730CE0FB79002B30
:100BB00007D100220721022000F0E4F80023FB7394
:100BC00001E00123FB73FB7B18461037BD4680BD57
:100BD00080B582B000AFFFF773FF0346FB71FB796E
:100BE000002B0CBF01230023DBB21846FFF774FF74
:100BF00000BF0837BD4680BD80B483B000AF034658
:100C0000FB710B46BB7113467B71FB79032B3ED006
:100C1000042B75D0022B00D0A9E0BB79072B17D885
:100C2000554B1B68BA7992000F2101FA02F2D243A8
:100C30001146514A0B4013604F4B1B687979BA79C2
:100C4000920001FA02F211464B4A0B43136089E00D
:100C5000BB790F2B00F28680BB79083BBB71464BFA
:100C60005B68BA7992000F2101FA02F2D243114671
:100C7000414A0B405360404B5B687979BA799200E6
:100C800001FA02F211463C4A0B4353606AE0BB7919
:100C9000072B17D8394B1B68BA7992000F2101FA3C
:100CA00002F2D2431146354A0B401360334B1B68A6
:100CB0007979BA79920001FA02F211462F4A0B4370
:100CC000136051E0BB790F2B4ED8BB79083BBB7149
:100CD0002A4B5B68BA7992000F2101FA02F2D243E3
:100CE0001146264A0B405360244B5B687979BA79E8
:100CF000920001FA02F21146204A0B43536033E09E
:100D0000BB79072B10D81E4B1B681D4B00221A60A5
:100D10001B4B1B687979BA79920001FA02F21146ED
:100D2000174A0B43136021E0BB790F2B1ED8BB7908
:100D3000083BBB71124B5B68BA7992000F2101FA34
:100D400002F2D24311460E4A0B4053600C4B5B68D3
:100D50007979BA79920001FA02F21146084A0B43F6
:100D6000536003E000BF02E000BF00E000BF00BF2F
:100D70000C37BD4680BC704700080140000C0140A4
:100D80000010014080B483B000AF0346FB710B46F6
:100D9000BB7113467B71FB79032B17D0042B28D032
:100DA000022B00D038E07B79002B08D0012B00D03B
:100DB0000BE0BB7901229A401A4B1A6105E0BB791E
:100DC00001229A40174B5A6100BF25E07B79002B26
:100DD00008D0012B00D00BE0BB7901229A40124BC6
:100DE0001A6105E0BB7901229A400F4B5A6100BF9E
:100DF00012E07B79002B08D0012B00D00BE0BB79EF
:100E000001229A40094B1A6105E0BB7901229A4000
:100E1000064B5A6100BF00BF00BF0C37BD4680BC07
:100E2000704700BF00080140000C01400010014065
:100E300080B485B000AF03460A46FB711346BB7110
:100E40000023FB73FB79032B0ED0042B16D0022B4F
:100E500000D01DE0114B9A68BB7922FA03F3DBB294
:100E600003F00103FB7313E00D4B9A68BB7922FA80
:100E700003F3DBB203F00103FB7309E0094B9A684B
:100E8000BB7922FA03F3DBB203F00103FB7300BF6B
:100E9000FB7B18461437BD4680BC704700080140F4
:100EA000000C0140001001400023012200B519464A
:100EB0001246814202BFEFF314836FF3000383F302
:100EC00014881EBFEFF3148343F0010383F31488E7
:100ED00000BD00BF80B400AF054B4FF480321A60F4
:100EE000044B01221A6000BFBD4680BC704700BFA2
:100EF000001002400410024080B483B000AF0346EB
:100F00000A46FB711346BB71BB791F2B28D8FB79AE
:100F1000012B0FD0022B18D0002B00D020E0134B58
:100F20001B68BA79012101FA02F211460F4A0B43FC
:100F3000136015E00E4B1B68BA79012101FA02F229
:100F400011460B4A0B4313600AE00A4B1B68BA793F
:100F5000012101FA02F21146064A0B43136000BF59
:100F600000BF0C37BD4680BC704700BF1410024064
:100F70001C1002401810024080B400AF044B1B68E4
:100F8000034A43F08053136000BFBD4680BC7047E6
:100F900004ED00E080B400AF054B00221A60044B62
:100FA000034A1B68136000BFBD4680BC704700BF8A
:100FB00010E000E080B400AF044B1B68034A23F04C
:100FC0000103136000BFBD4680BC704710E000E025
:100FD00080B400AF044B1B68034A43F00103136065
:100FE00000BFBD4680BC704710E000E080B483B015
:100FF00000AF786039607B68B3F1807F1AD2104B04
:101000001B680F4A23F0010313600D4A7B6853608D
:101010000B4B1B680A4A43F001031360094A3B6803
:101020001360094B00221A70054B1B68044A43F0F9
:101030000203136000BF0C37BD4680BC704700BF81
:1010400010E000E080000020D500002080B500AF57
:101050000E4B1B78022B11D10D4B1B680C4A23F051
:10106000020313600A4B1B68094A23F00103136053
:10107000074B00225A60064B00229A60054B1B6802
:101080009847034B1B6800BF80BD00BFD500002000
:1010900010E000E08000002080B500AF064B1B7818
:1010A00083F00103DAB2044B1A70FFF75EFD0A21E8
:1010B0000248FFF734FAF1E706010020DC000020C7
:1010C00080B500AF064B1B7883F00103DAB2044B06
:1010D0001A70FFF73BFD0C210248FFF720FAF1E7F9
:1010E000040100203001002080B500AF064B1B78C2
:1010F00083F00103DAB2044B1A70FFF70DFD0F21E4
:101100000248FFF70CFAF1E7D80000205801002050
:1011100080B500AF064B1B7883F00103DAB2044BB5
:101120001A70FFF755FD12210248FFF7F8F9F1E7B1
:10113000050100200801002080B582B000AFFFF754
:10114000C9FE02210220FFF7D7FE0422032102205C
:10115000FFF752FD012207210220FFF74DFDFFF7A7
:1011600013F90346FB71FB79002B00D0FEE700BFAB
:101170000837BD4680BD000080B582B000AFFFF7E4
:10118000DBFF424B01221A70404B03221A723F4B85
:101190004FF400725A603D4B3D4ADA603B48FFF71E
:1011A00027F90346FB71FB79002B00D0FEE7394B92
:1011B00002221A70374B03221A72364B4FF4007218
:1011C0005A60344B344ADA603248FFF711F903466B
:1011D000FB71FB79002B00D0FEE7304B03221A7025
:1011E0002E4B03221A722D4B4FF400725A602B4B78
:1011F0002B4ADA602948FFF7FBF80346FB71FB79BD
:10120000002B00D0FEE7274B04221A70254B032247
:101210001A72244B4FF400725A60224B224ADA6051
:101220002048FFF7E5F80346FB71FB79002B00D05F
:10123000FEE71648FFF75AF90346FB71FB79002BCE
:1012400000D0FEE71348FFF751F90346FB71FB7925
:10125000002B00D0FEE71148FFF748F90346FB7169
:10126000FB79002B00D0FEE70E48FFF73FF903465D
:10127000FB71FB79002B00D0FEE7FFF769F903460D
:10128000FB71FB79002B00D0FEE7FEE7DC000020BD
:101290009910000830010020C110000858010020FA
:1012A000E910000808010020111100080D488546CA
:1012B000AFF300800C480D490D4A002302E0D458DA
:1012C000C4500433C4188C42F9D30A4A0A4C002390
:1012D00001E013600432A242FBD300F011F8FFF7E3
:1012E0004BFFFEE700280020000000200000002047
:1012F000801300080000002080010020FEE70000AD
:1013000070B500250C4E0D4CA41BA410A54209D1AC
:1013100000F01AF800250A4E0A4CA41BA410A5429E
:1013200005D170BD56F8253098470135EEE756F8DF
:10133000253098470135F2E7781300087813000844
:10134000781300087C130008F8B500BFF8BC08BC8F
:101350009E467047F8B500BFF8BC08BC9E46704773
:10136000C8000020D0000020C4000020C8000020D9
:08137000C4000020D0000020A1
:041378005501000813
:04137C003101000833
:04000005080012AD30
:00000001FF
